:100000000C9411170C943B170C943B170C943B1752
:100010000C943B170C943B170C943B170C943B1718
:100020000C943B170C943CB80C943B170C943B1766
:100030000C943B170C9491270C943B170C943B1792
:100040000C943B170C94AA250C94F2B70C943B1714
:100050000C94B0A30C943B170C943B170C943B17D7
:100060000C943B170C943B170C943B170C943B17C8
:100070000C943B170C943B170C943B170C943B17B8
:100080000C94412F0C943B170C943B17084AD73B18
:100090003BCE016E84BCBFFDC12F3D6C74319ABD57
:1000A00056833DDA3D00C77F11BED9E4BB4C3E917B
:1000B0006BAAAABE000000803F05A84CCDB2D44E6A
:1000C000B93836A9020C50B9918688083CA6AAAA6C
:1000D0002ABE000000803F004E414E494E4954590F
:1000E000494E46CDCCCC3D0AD7233C17B7D1387703
:1000F000CC2B329595E6241FB14F0A000020410019
:1001000000C84200401C4620BCBE4CCA1B0E5AAE62
:10011000C59D74434F4D4D554E49434154494F4E33
:100120000044525952554E004552524F52530049C5
:100130004E464F004543484F00656E7175657565C5
:10014000696E672022004B494C4C45442E200053D9
:10015000544F505045442E20005072696E746572A1
:100160002073746F707065642064756520746F20EF
:100170006572726F72732E204669782074686520EC
:100180006572726F7220616E6420757365204D39DF
:10019000393920746F20726573746172742E20284F
:1001A00054656D7065726174757265206973207233
:1001B000657365742E2053657420697420616674BC
:1001C00065722072657374617274696E67290A00C2
:1001D0004E6F20436865636B73756D207769746833
:1001E000206C696E65206E756D6265722C204C61A5
:1001F0007374204C696E653A20004E6F2043686529
:10020000636B73756D2077697468206C696E652007
:100210006E756D6265722C204C617374204C696E32
:10022000653A2000636865636B73756D206D697353
:100230006D617463682C204C617374204C696E6529
:100240003A20004C696E65204E756D6265722069BA
:1002500073206E6F74204C617374204C696E65203E
:100260004E756D6265722B312C204C617374204C7D
:10027000696E653A20004D313130004D3331005305
:10028000442072656164206572726F720A00446F67
:100290006E65207072696E74696E672066696C6540
:1002A0000A0020496E76616C696420657874727505
:1002B00064657220000000000000000000000000E3
:1002C0000000005C4300005C430000964342696C00
:1002D000696E656172204C6576656C696E67204752
:1002E0007269643A0A00486F6D696E6720666169D9
:1002F0006C656400202844525952554E29004732FB
:1003000039204175746F20426564204C6576656CB8
:10031000696E67003F20284C2C522C462C42292025
:100320006F7574206F6620626F756E64732E0A009D
:100330003F2856296572626F7365206C6576656C1F
:1003400020697320696D706C61757369626C6520DA
:1003500028302D34292E0A00426164205A2076610B
:100360006C75650A004E6F2062696C696E6561721A
:1003700020677269640A0044656C6574696F6E2059
:100380006661696C65642C2046696C653A2000469C
:10039000696C652064656C657465643A0050726FC1
:1003A0007465637465642050696E0A0020573A00D2
:1003B0004520436F6F6C696E672E2E2E00452048D6
:1003C000656174696E672E2E2E0020573A004265D3
:1003D0006420636F6F6C696E672E2E2E0042656419
:1003E0002068656174696E672E2E2E00205A3A00CF
:1003F00020593A0020436F756E7420583A0020450A
:100400003A00205A3A0020593A00583A003A00433C
:1004100061703A005741524E494E4721204C6F7748
:10042000205A204A65726B206D6179206C65616489
:1004300020746F20756E77616E74656420706175CD
:100440007365732E0A00205A00205900580020209E
:100450004D61783A2000205A002059005800202091
:100460004D696E3A20004F6E20004F666600536F54
:10047000667420656E6473746F70733A2000496E01
:1004800076616C69642065787472756465720A00BF
:1004900020643A0020693A0020703A004B64200042
:1004A00023646566696E652044454641554C545F3A
:1004B000004B69200023646566696E6520444546EB
:1004C00041554C545F004B70200023646566696E93
:1004D000652044454641554C545F005049442041F5
:1004E00075746F74756E652066696E69736865648E
:1004F000212050757420746865206C617374204BE2
:10050000702C204B6920616E64204B6420636F6EF9
:100510007374616E74732066726F6D2062656C6FA8
:100520007720696E746F20436F6E666967757261BC
:1005300074696F6E2E680A00504944204175746FCB
:1005400074756E65206661696C6564212074696DDF
:10055000656F75740A00453120544845524D414C31
:100560002052554E41574159004245442054484578
:10057000524D414C2052554E4157415900546865E7
:10058000726D616C2052756E617761790045312022
:1005900048656174696E67206661696C65640042D4
:1005A00065642068656174696E67206661696C6561
:1005B000640048656174696E67206661696C656492
:1005C00000504944204175746F74756E65206661F2
:1005D000696C6564212054656D7065726174757213
:1005E0006520746F6F20686967680A00204B643A61
:1005F0002000204B693A2000204B703A20000A204E
:10060000436C617373696320504944200A0020548D
:10061000753A2000204B753A2000206D61783A2011
:1006200000206D696E3A200020643A200020626943
:1006300061733A2000504944204175746F74756E9F
:10064000652073746172740A0050494420417574C6
:100650006F74756E65206661696C656421205465F0
:100660006D706572617475726520746F6F20686952
:1006700067680A00504944204175746F74756E654F
:10068000206661696C65642120426164206578742C
:100690007275646572206E756D6265720A004F66D0
:1006A000660A0046616465204865696768742000D1
:1006B000426564204C6576656C696E672000466112
:1006C000696C656420746F20656E61626C652042A0
:1006D0006564204C6576656C696E670A004D6573CC
:1006E0006820706F696E742063616E6E6F74206233
:1006F00065207265736F6C7665640A004D34323123
:1007000020696E636F727265637420706172616DCF
:10071000657465722075736167650A004F6666735C
:10072000657473206170706C696564004572723A1B
:1007300020546F6F206661722100546F6F206661D4
:10074000722066726F6D207265666572656E636594
:1007500020706F696E740A0047322F473320626140
:100760006420706172616D65746572730A00536C08
:100770006565702E2E2E00486F6D652058592066D5
:10078000697273740A00486F6D6520585920666954
:1007900072737400205A3A200020593A20004265B2
:1007A0006420583A20004D65736820706F696E743C
:1007B0002063616E6E6F74206265207265736F6C6A
:1007C0007665640A00436C69636B20746F20726500
:1007D00073756D652E2E2E004E6F206D6F76652E13
:1007E00000456E642066696C65206C6973740A004C
:1007F000426567696E2066696C65206C6973740A6E
:1008000000286E6F2066696C6529004375727265F9
:100810006E742066696C653A2000534420707269DA
:100820006E74696E67206279746520004E6F742063
:100830005344207072696E74696E670A002569738B
:100840000025696D20256973002569682025696D7B
:100850002025697300256964202569682025696D54
:100860002025697300256979202569642025696838
:100870002025696D20256973005072696E7420749B
:10088000696D653A20006F66660034012F0128010A
:100890002101130144454255473A004B494C4C4510
:1008A000442E20004D3131332053006F6B00456ED4
:1008B0006465722D35204F66662E002C20002C209A
:1008C00000544845524D414C5F50524F544543549B
:1008D000494F4E004155544F5245504F52545F536B
:1008E000445F53544154555300454D455247454E7E
:1008F00043595F50415253455200434153455F4C69
:10090000494748545F4252494748544E4553530063
:10091000544F47474C455F4C494748545300534F49
:100920004654574152455F504F5745520042554932
:100930004C445F50455243454E54004C4556454C3F
:10094000494E475F44415441005A5F50524F42451F
:10095000004155544F4C4556454C005052494E5459
:100960005F4A4F420050524F475245535300415542
:10097000544F5245504F52545F54454D5000564FBE
:100980004C554D455452494300454550524F4D003A
:1009900053455249414C5F584F4E5F584F464600B1
:1009A0004649524D574152455F4E414D453A4D6182
:1009B000726C696E20312E312E3920284769746897
:1009C00075622920534F555243455F434F44455F5D
:1009D00055524C3A68747470733A2F2F6769746873
:1009E00075622E636F6D2F4D61726C696E46697210
:1009F0006D776172652F4D61726C696E2050524F38
:100A0000544F434F4C5F56455253494F4E3A312E47
:100A100030204D414348494E455F545950453A4571
:100A20006E6465722D352045585452554445525FC9
:100A3000434F554E543A3120555549443A63656405
:100A400065326132662D343161322D343734382DC0
:100A5000396231322D633535633632663336376667
:100A6000660A002F2F20004D31343520533C696E2B
:100A70006465783E206F7574206F662072616E67C2
:100A8000652028302D31290A0020540020520041D1
:100A90006363656C65726174696F6E3A2050002003
:100AA000466C6F773A200000010F150EFF12FFFF12
:100AB000FF16170EFF13FFFFFF03021A14FFFFFFBD
:100AC000FFFFFFFF0C04FFFFFF01000EFFFFFF0C05
:100AD000190DFF183A200020536572766F20002010
:100AE0006F7574206F662072616E67650A005365CA
:100AF00072766F200043290A0061626C65642028C9
:100B00006D696E2074656D702000436F6C642065A4
:100B10007874727564657320617265200020643A90
:100B20000020693A0020703A004E6F2063617365BF
:100B3000206C696768740A00454550524F4D204F3C
:100B40004B0A003F5A206F7574206F662072616EE9
:100B5000676520282D323020746F203230290A003A
:100B60003A200050726F6265205A204F66667365A6
:100B700074004163746976652045787472756465A4
:100B8000723A2000496E76616C69642065787472EF
:100B9000756465720A00526573656E643A20006F71
:100BA0006B0020746F6F206C6F6E672065787472B5
:100BB0007573696F6E2070726576656E7465640A10
:100BC0000020636F6C6420657874727573696F6E52
:100BD0002070726576656E7465640A00627573795B
:100BE0003A2070617573656420666F7220696E705B
:100BF00075740A00627573793A2070617573656463
:100C000020666F7220757365720A00627573793A97
:100C10002070726F63657373696E670A004B494C8D
:100C20004C45442E20004B494C4C20636175736544
:100C30006420627920746F6F206D75636820696E1F
:100C40006163746976652074696D65202D20637514
:100C50007272656E7420636F6D6D616E643A200010
:100C6000506C6561736520726573657400505249FC
:100C70004E5445522048414C544544005072696ED0
:100C80007465722068616C7465642E206B696C6C8D
:100C900028292063616C6C6564210A0000005C43B4
:100CA00000005C4300000000000048420000484291
:100CB00000008040000000005761726E696E673A64
:100CC00020486F6D696E672042756D7020446976AB
:100CD00069736F72203C20310A000202040000A0F8
:100CE000400000A0400000004000005C4300005CA9
:100CF00043000096430101FF7C3C3E5E2B3D3F2FAD
:100D00005B5D3B2C2A225C004572726F7220777209
:100D10006974696E6720746F20454550524F4D21AC
:100D20000A00454550524F4D206461746173697AE1
:100D300065206572726F722E0A00290A002062799E
:100D40007465733B20637263200053657474696E2D
:100D500067732053746F726564202800290A00208D
:100D600062797465733B2063726320002073746F33
:100D70007265642073657474696E6773207265743C
:100D8000726965766564202800202863616C63754C
:100D90006C6174656429210A0020213D20004545CD
:100DA00050524F4D20435243206D69736D617463FF
:100DB00068202D202873746F7265642920002053E9
:100DC000697A653A2000496E6465783A2000204DC2
:100DD00061726C696E3D563536290A0028454550CA
:100DE000524F4D3D00454550524F4D207665727330
:100DF000696F6E206D69736D61746368200048616E
:100E00007264636F6465642044656661756C742008
:100E100053657474696E6773204C6F616465640A0E
:100E200000F4010000F401000064000000881300D9
:100E3000000000FA430000FA430000A0400000C890
:100E4000410000A0420000A0420000C8430000BAD8
:100E5000423A0A0020286D6D290020204D38353196
:100E6000205A005A2D50726F6265204F6666736576
:100E7000740020440020490020204D33303420509D
:100E80000020440020490020204D33303120500004
:100E90005049442073657474696E67733A0A002080
:100EA000460020420020480020204D313435205398
:100EB000004D6174657269616C206865617475705C
:100EC00020706172616D65746572733A0A00205A10
:100ED00000204A0020204732392057204900205A5C
:100EE0000020204D3432302053004175746F204271
:100EF0006564204C6576656C696E673A0A00205A15
:100F00000020590020204D323036205800486F6DA7
:100F100065206F66667365743A0A00204500205AA2
:100F20000020590020580020540020530020204D5C
:100F300032303520510020453C6D61785F655F6A35
:100F400065726B3E0020583C6D61785F785F6A6522
:100F5000726B3E20593C6D61785F795F6A65726B98
:100F60003E205A3C6D61785F7A5F6A65726B3E0025
:100F7000416476616E6365643A20513C6D696E5FD1
:100F80007365676D656E745F74696D655F75733EDB
:100F900020533C6D696E5F66656564726174653E81
:100FA00020543C6D696E5F74726176656C5F666536
:100FB0006564726174653E00205400205200202058
:100FC0004D323034205000416363656C657261744A
:100FD000696F6E2028756E6974732F7332293A20F9
:100FE000503C7072696E745F616363656C3E205241
:100FF0003C726574726163745F616363656C3E200B
:10100000543C74726176656C5F616363656C3E0A23
:1010100000204500205A0020590020204D32303158
:101020002058004D6178696D756D20416363656C72
:1010300065726174696F6E2028756E6974732F73A1
:1010400032293A0A00204500205A00205900202069
:101050004D3230332058004D6178696D756D2066D2
:1010600065656472617465732028756E6974732F89
:1010700073293A0A00204500205A002059002020F8
:101080004D3932205800537465707320706572209A
:10109000756E69743A0A0020204D32303020443099
:1010A0000A0020204D323030204400204469736112
:1010B000626C65640A0046696C616D656E742073CC
:1010C000657474696E67733A0020204D313439209D
:1010D00043203B20556E69747320696E2043656C14
:1010E000736975730A002020473231202020203B8D
:1010F00000545249474745524544006F70656E00A1
:101100003A20007A5F6D696E00795F6D61780078D2
:101110005F6D6178005265706F7274696E672065EB
:101120006E6473746F70207374617475730A002039
:10113000746F6F206C6F6E67206578747275736959
:101140006F6E2070726576656E7465640A00206348
:101150006F6C6420657874727573696F6E2070723D
:101160006576656E7465640A0024F4D43050C38ECD
:1011700020C2A24017828B7011127A910D816CD916
:101180000AA861E108C7586607615143061E4B5D16
:1011900005C145A7041A411104093D98037139316D
:1011A000034036DB0265339102D4305402802E1D99
:1011B00002632CEE01752AC501B028A00110278119
:1011C000018F2564012B244B01E0223401AC211F47
:1011D000018D200D01801FFC00841EED00971DDF96
:1011E00000B81CD200E61BC600201BBC00641AB26B
:1011F00000B219A8000A19A0006A189900D1179125
:101200000040178B00B516840031167E00B31579A7
:10121000003A157300C7146F0058146A00EE136685
:10122000008813630025135E00C7125B006C125721
:101230000015125400C111510070114F0021114BC3
:1012400000D61049008D104700461044000210429D
:1012500000C00F4000800F3E00420F3C00060F3BD5
:1012600000CB0E3800930E37005C0E3500270E348D
:1012700000F30D3200C10D3100900D3000600D2ED5
:1012800000320D2D00050D2C00D90C2B00AE0C29C1
:1012900000850C29005C0C2700350C27000E0C265D
:1012A00000E80B2400C40B2400A00B23007D0B23BB
:1012B000005A0B2100390B2100180B2000F80A1FDF
:1012C00000D90A1E00BB0A1E009D0A1D00800A1DCF
:1012D00000630A1C00470A1B002C0A1B00110A1A93
:1012E00000F7091A00DD091900C4091900AB091932
:1012F00000920917007B091800630917004C0916B2
:101300000036091600200916000A091500F508150F
:1013100000E0081400CC081400B8081400A4081455
:1013200000900813007D0812006B08130058081283
:101330000046081200340811002308110012081199
:101340000001081100F0071000E0071000D007109E
:1013500000C0071000B0070F00A107100091070E92
:101360000083070F0074070F0065070E0057070E74
:101370000049070E003B070D002E070E0020070D49
:101380000013070D0006070D00F9060C00ED060D11
:1013900000E0060C00D4060C00C8060C00BC060CCD
:1013A00000B0060C00A4060B0099060C008D060B7D
:1013B0000082060B0077060B006C060B0061060A24
:1013C0000057060B004C060A0042060A0038060ABF
:1013D000002E060A0024060A001A060A0010060952
:1013E0000007060A00FD050900F4050900EB0509E0
:1013F00000E2050900D9050900D0050900C7050963
:1014000000BE050900B5050800AD050800A50509E1
:10141000009C050800940508008C05080084050858
:10142000007C050800740508006C050700650508C8
:10143000005D050700560508004E05070047050733
:10144000004005080038050700310507002A050798
:1014500000230507001C050600160507000F0507F9
:10146000000805060002050700FB040600F5040756
:1014700000EE040600E8040600E2040700DB0406B0
:1014800000D5040600CF040600C9040600C3040604
:1014900000BD040600B7040600B1040500AC040654
:1014A00000A6040600A00405009B040600950405A0
:1014B00000900406008A04050085040500800406E7
:1014C000007A04050075040500700405006B04052E
:1014D0000066040500610405005C0405005704056E
:1014E00000520405004D04050048040500430405AE
:1014F000003E0404003A04050035040500300404ED
:10150000002C04050027040400230405001E040425
:10151000001A04040016040500110404000D04045C
:1015200000090405000404040000040400FC030492
:1015300000F8030400F4030400F0030400EC0304C7
:1015400000E8030400E4030400E0030400DC0304F7
:1015500000D8030400D4030400D0030400CC030427
:1015600000C8030300C503030024F404D9201BC4EE
:101570000C5C0E9804C4095F0265077101F405F95B
:1015800000FB04B30048048700C1036900580355F9
:101590000003034500BE023A008402310053022AD0
:1015A000002902250004022000E4011C00C80119E2
:1015B00000AF01170098011400840113007101109D
:1015C000006101100051010E0043010D0036010BB6
:1015D000002B010B0020010B00150109000C010973
:1015E0000003010800FB000800F3000800EB0007FF
:1015F00000E4000600DE000600D8000600D2000667
:1016000000CC000500C7000500C2000500BD0004B5
:1016100000B9000400B5000400B1000400AD0004EE
:1016200000A9000400A5000300A20003009F00041D
:10163000009B000300980003009500020093000344
:1016400000900003008D0002008B00030088000260
:10165000008600020084000300810002007F000277
:10166000007D0002007B000200790002007700018B
:101670000076000200740002007200010071000296
:10168000006F0002006D0001006C0002006A0001A2
:1016900000690002006700010066000100650001AA
:1016A00000640002006200010061000100600001AE
:1016B000005F0002005D0001005C0001005B0001B2
:1016C000005A0001005900010058000100570001B4
:1016D00000560001005500010054000100530000B5
:1016E00000530001005200010051000100500001B0
:1016F000004F0001004E0000004E0001004D0001AF
:10170000004C0001004B0000004B0001004A0001AA
:1017100000490001004800000048000100470001A6
:1017200000460000004600010045000000450001A1
:10173000004400010043000000430001004200009B
:101740000042000100410000004100010040000192
:10175000003F0000003F0001003E0000003E00018D
:10176000003D0000003D0001003C0000003C000086
:10177000003C0001003B0000003B0001003A00007B
:10178000003A000100390000003900010038000073
:101790000038000000380001003700000037000169
:1017A0000036000000360000003600010035000061
:1017B0000035000000350001003400000034000056
:1017C000003400010033000000330000003300014A
:1017D0000032000000320000003200010031000041
:1017E0000031000000310001003000000030000036
:1017F00000300001002F0000002F0000002F00002B
:10180000002F0001002E0000002E0000002E00011D
:10181000002D0000002D0000002D0000002D000113
:10182000002C0000002C0000002C0000002C000107
:10183000002B0000002B0000002B0000002B0001FB
:10184000002A0000002A0000002A0000002A0001EF
:1018500000290000002900000029000000290000E4
:1018600000290001002800000028000000280000D6
:1018700000280000002800010027000000270000C9
:1018800000270000002700000027000100260000BC
:1018900000260000002600000026000000260001AF
:1018A00000250000002500000025000000250000A4
:1018B0000025000000250001002400000024000095
:1018C0000024000000240000002400010023000088
:1018D000002300000023000000230000002300007C
:1018E000002300000023000100220000002200006D
:1018F000002200000022000000220000002200015F
:101900000021000000210000002100000021000053
:101910000021000000210000002100010020000043
:101920000020000000200000002000000020000037
:10193000002000000020000000200001001F000027
:10194000001F0000001F0000001F0000001F00001B
:10195000001F0000001F0001001E0000001E00000C
:10196000001E0000001E000000043700001E2900B9
:1019700000511B00005810000010090000CC0400AA
:101980000078020000410100006265640A002C201A
:1019900073797374656D2073746F70706564212042
:1019A0004865617465725F49443A2000426564206D
:1019B00068656174696E67206661696C656400487A
:1019C000656174696E67206661696C6564004531A4
:1019D0002048656174696E67206661696C656400A2
:1019E00048656174696E67206661696C6564007042
:1019F000012C0190012701B0012201C0011D01F05D
:101A00000118011002130130020E01600209019059
:101A1000020401C002FF000003FA004003F5008049
:101A200003F000D003EB002004E6007004E100E0C6
:101A300004DC004005D700C005D2004006CD00D030
:101A400006C8008007C3003008BE00F008B900C017
:101A500009B400B00AAF00B00BAA00D00CA500007A
:101A60000EA000500F9B00C0109600501291000075
:101A7000148C00C0158700B0178200B0197D00D00B
:101A80001B7800001E730040206E0090226900F059
:101A900024640040275F0090295A00E02B55001075
:101AA0002E500020304B0010324600E033410090B1
:101AB000353C001037370070383200A0392D00B0A7
:101AC0003A2800A03B2300603C1E00103D19009006
:101AD0003D1400103E0F00703E0A00C03E0500009D
:101AE0003F0000403FFBFF803FF6FFC03FF1FF4556
:101AF0003120544845524D414C2052554E4157419A
:101B0000590042454420544845524D414C205255BD
:101B10004E4157415900546865726D616C20527591
:101B20006E61776179004531204572723A204D41EE
:101B30005854454D50004572723A204D4158544515
:101B40004D5020424544004D415854454D5020745D
:101B50007269676765726564004531204572723A43
:101B6000204D494E54454D50004572723A204D4922
:101B70004E54454D5020424544004D494E54454D2C
:101B80005020747269676765726564004D3834204F
:101B9000582059205A204500202F002042403A006A
:101BA00020403A0025753A253032750025303275CF
:101BB0003A253032750025756420253032753A2576
:101BC00030327500202020202020005A00590020AB
:101BD0002020200058000920000000000000000024
:101BE0000000000000003FFFF000000000000000C7
:101BF000000000000000380070000000000000003D
:101C000000000000000030FC300000000000000078
:101C100000000000000020FC100000000000000098
:101C2000000000000000207810000000000000000C
:101C30000000000000002030100000000000000044
:101C40000000000000002C00D0F80180000C1FE014
:101C50000000082080002E31D048008000123FF0A4
:101C60000000041040002F7BD043C38CD0023FF013
:101C70000000041040002F7BD071249267CC3FF00D
:101C80000000082080002E31D041249E40021FE039
:101C90000000104100002C00D049249040121FE0A9
:101CA000000020820000203010FBB3CEE00C3FF09B
:101CB00000002082000020781000000000003FF0AB
:101CC00000001041000020FC1000000000003FF068
:101CD00000000820800030FC3000000000000FC031
:101CE00000000000000038007000000000000780C5
:101CF0000000FFFFC0003FFFF000000000000300F5
:101D00000000FFFFC0000000000000000000000015
:101D10000000000000003FFFF00000000000000095
:101D2000000000000000380070000000000000000B
:101D300000000000000033873000000000000000B9
:101D40000000000000002787900000000000000055
:101D50000000000000002F87D000000000000000FD
:101D60000000000000002F87D000000000000000ED
:101D70000000000000002F03D0F80180000C1FE0DD
:101D800000000820800020301048008000123FF042
:101D900000000410400020781043C38CD0023FF0B4
:101DA00000000410400020781071249267CC3FF0AE
:101DB00000000820800020301041249E40021FE0D7
:101DC0000000104100002F03D049249040121FE072
:101DD0000000208200002F87D0FBB3CEE00C3FF044
:101DE0000000208200002F87D000000000003FF09C
:101DF00000001041000027879000000000003FF025
:101E000000000820800033873000000000000FC071
:101E10000000000000003800700000000000078093
:101E20000000FFFFC0003FFFF000000000000300C3
:101E30000000FFFFC000000000456E6465722D3594
:101E40002052656164792E005072696E74696E6704
:101E50002E2E2E005072696E742070617573656449
:101E600000436D643A2053572D4D6F646500436DF8
:101E7000643A2053746F7700436D643A2044657070
:101E80006C6F7900436D643A2053656C662D546520
:101E9000737400436D643A205265736574004D613C
:101EA000696E005072696E742061626F727465644D
:101EB000004D3231004E6F20534420636172640044
:101EC0004368616E67652053442063617264004D0E
:101ED0003231005072696E742066726F6D20534407
:101EE0000053746F70207072696E74005265737560
:101EF0006D65207072696E7400496E69742E20538E
:101F0000442063617264005061757365207072696A
:101F10006E7400436F6E74726F6C00507265706106
:101F200072650054756E6500496E666F207363724A
:101F300065656E00466C6F7700466C6F7700466192
:101F40006E2073706565640046616E207370656510
:101F5000640042656400426564004E6F7A7A6C6585
:101F6000004E6F7A7A6C650053706565640053703B
:101F7000656564004D61696E0050726568656174E5
:101F800020504C4120456E64005072656865617454
:101F900020504C4120426564005072656865617450
:101FA00020504C410050726570617265005072653E
:101FB000686561742041425320456E64005072652B
:101FC0006865617420414253204265640050726527
:101FD000686561742041425300507265706172659A
:101FE00000436D643A205265736574004D32383099
:101FF000205030205331363000436D643A20536511
:102000006C662D54657374004D323830205030208A
:10201000533132300050726568656174204142531B
:10202000005072656865617420504C4100436F6FC9
:102030006C646F776E0044697361626C65207374C1
:10204000657070657273004D3834004175746F208F
:10205000686F6D6500473238004D6F766520617896
:102060006973004D61696E004D6F76652058004DB3
:102070006F76652059004D6F7665205A004578745B
:102080007275646572004D6F766520302E316D6D0E
:10209000004D6F766520316D6D004D6F7665203196
:1020A000306D6D004D6F76652061786973004578FD
:1020B000747275646572004D6F7665205A004D6FBD
:1020C00076652059004D6F7665205800457874720A
:1020D00075646572004D6F7665205A004D6F7665A8
:1020E0002059004D6F7665205800507265706172FE
:1020F00065004C6F61642073657474696E6773006A
:10210000526573746F7265206661696C7361666590
:102110000053746F72652073657474696E67730021
:10212000424C546F7563680046696C616D656E74EE
:10213000004D6F74696F6E0054656D7065726174E7
:10214000757265004D61696E005049442D44005020
:1021500049442D44005049442D49005049442D49DB
:10216000005049442D50005049442D500020082073
:1021700046616374002008204661637400200820D3
:102180004D6178002008204D6178002008204D69BD
:102190006E002008204D696E004F6666004F6E206D
:1021A000004175746F74656D700046616E207370C8
:1021B0006565640046616E20737065656400426504
:1021C0006400426564004E6F7A7A6C65004E6F7AE7
:1021D0007A6C6500436F6E74726F6C0050726F6240
:1021E00065205A204F66667365740050726F626591
:1021F000205A204F666673657400436F6E74726F69
:102200006C0046696C2E204469612E0046696C2E74
:10221000204469612E004F6666004F6E2000452005
:10222000696E206D6D3300436F6E74726F6C004386
:10223000616E6E6F7420656E746572207375626472
:1022400069723A2000022E2E000152656672657393
:1022500068004D61696E0002FFFFFFFFEFFFFFFFA7
:10226000FFFFFFFFFFFFFFEFEFFFFFFFFFFFFFFF9E
:10227000FFFFE7DFFFFFFFFFFFFFFFFFFFE7DFFFDE
:10228000FFFFFFFFFFFFFFFFE3DFFFFFFFFFFFFF9A
:10229000FFFFFFF3CFFFFFFFFFFFFFFFFFE1E1CFF6
:1022A000FFFFFFFFFFFFFE78000003DDFFFFFFFFE2
:1022B000FEFF807E0001EEFFFFFFFFFE7DCFFC00F2
:1022C00000F77FFFFFFFFF8E060000007BBFFFFFD0
:1022D000FFFFC0000000007DDFFFFFFFFFFC01FEED
:1022E00000003EE7FFFFFFFFFFFFFC00031F73FF3F
:1022F000FFFFFFFFFFF800018F81FFFFFFFFFFFFE0
:10230000E0000083F9FFFFFFFFFFFF00FC0000F08B
:10231000FFFFFFFFFFE00FFFC00000FFFFFFFFFE1A
:1023200003FFFFC00000FFFFFFFFFFFFFFF90000FA
:1023300000FFFFFFFFFFFFFFFC0007C0FFFFFFFFE5
:10234000FFFFFFFF0007E0FFFFFFFFFFFFFFFFE0D2
:1023500007F1FFFFFFFFFFFFFFFFFC07F9FFFFFF94
:10236000FFFFFFFFFFFF03F9FFFFFFFFFFFFFFFF7F
:10237000FF83F9FFFFFFFFFFFFFFFFFFC3FFFFFF2B
:10238000FFFFFFFFFFFFFFE1FFFFFFFFFFFFFFFF7B
:10239000FFFFF0BFFFFFFFFFFFFFFFFFFBF83FFF67
:1023A000FFFFFFFFFFFFFFF9F83FFFFFFFFFFFFF0A
:1023B000FFFF7EF0FFFFFFFFFFFFFFFFFF8E03FF2A
:1023C000FFFFFFFFFFFFFFFFE01FFFFFFFFFFFFF1C
:1023D000FFFFFFFFFFFFFFFFFFFFFFFFFFFFFFFF0D
:1023E000FFFFFFFFFFFFFFFFFFFFFF7FFFFFFFFF7D
:1023F00000007FFFFFF87FFFFFFFFF80007FFFFFF0
:10240000E07FFFFFFFFFC3FCFFFFFFF8FFFFFFFFC1
:10241000FFC3FCFFFFFFF8FFFFFFFFFF87FDFFFF8C
:10242000FFF1FFFFFFFFFF87FFFFFFFFF1FFFFFF50
:10243000FFFF0FE7F30FFC23FC3FFFFFFF0FEF80D1
:1024400007F003F01E007FFE1FCF8187C787C70CF0
:10245000007FFE001FC7C78FC79F0F0CFFFE001F26
:10246000878F1F8F1F0F1FFFFC3F9F8F8F1F8E00B7
:102470001E3FFFFC7F3F0F1E3F1E3FFE3FFFF87FCA
:10248000FF1F1C3F1C7FFC7FFFF8FFFF1E1C7E1CF4
:102490007FFC7FFFF0FFCE3E3C7E3C7FB8FFFFF02D
:1024A000FF9E3C387C387E78FFFFE1FF3C7C787CE7
:1024B000783CF1FFFFE1F8387878101801F1FFFF60
:1024C000000060203C007C07807FFFFFFFFFFFFED5
:1024D0001FFE1FFFFFFF1FFFFFFFFFFFFF6000004A
:1024E000000001FF400000000000FF80000000002D
:1024F000007F83CF00000C303F87FF80000C301F2F
:10250000867980000C000F8C30C7838C30E78C30CC
:10251000CFC7CC31F38C30DCECEC33B98C30D86CD9
:102520006C33198C30D06C0C33198C30D86C0C3364
:10253000198C30DC6C0E3B198C30CF7C079F198CCA
:1025400030C77C038F1940000000000002600000CB
:10255000000000061FFFFFFFFFFFF82020506C6106
:102560006E6E657242756666657242797465733A1D
:1025700020002046726565204D656D6F72793A20A6
:1025800000436F6D70696C65643A20417072203150
:102590003620323032300A00207C20417574686F5A
:1025A000723A20284C4865636B2C20456E64657236
:1025B0002D3520424C546F756368290A0032303142
:1025C000382D30382D303100204C61737420557017
:1025D00064617465643A2000312E312E390A004D51
:1025E00061726C696E0020536F667477617265204A
:1025F00052657365740A00205761746368646F677D
:102600002052657365740A002042726F776E206FE6
:1026100075742052657365740A002045787465727C
:102620006E616C2052657365740A00506F77657235
:1026300055700A0073746172740A006175746F25B5
:10264000692E67006572726F722077726974696EA5
:102650006720746F2066696C650A00456E64737448
:102660006F70732025632025632025632025630078
:10267000205A3A0020593A0020583A00656E647397
:10268000746F7073206869743A2000446F6E65201F
:10269000736176696E672066696C652E0A004D323B
:1026A000390000002100240027002A000000220039
:1026B000250028002B000000200023002600290010
:1026C00002020202020202020404040404040404DA
:1026D00003030303030303030101010101010101DA
:1026E00001020408102040800102040810204080EC
:1026F00001020408102040808040201008040201DC
:10270000000000010200090A00000000040308079D
:1027100000000000000000000000000000000000B9
:102720004D3234004D323320257300556E6B6E6F81
:10273000776E20636F6D6D616E643A202200507277
:102740006F62696E67206661696C65640A00507229
:102750006F62696E67206661696C656400205A3A31
:10276000200020593A200042656420583A20005346
:10277000442063617264206F6B0A006F70656E5253
:102780006F6F74206661696C65640A00766F6C75A2
:102790006D652E696E6974206661696C65640A00F6
:1027A000534420696E6974206661696C0A00486F41
:1027B0006D65202573257325732066697273740017
:1027C0002066697273740A005A0059005800486FF5
:1027D0006D65200057726974696E6720746F20669A
:1027E000696C653A20006F70656E206661696C6582
:1027F000642C2046696C653A20006F70656E206617
:1028000061696C65642C2046696C653A20004669F4
:102810006C652073656C65637465640A0020536998
:102820007A653A200046696C65206F70656E656454
:102830003A20002066696C653A2000646F696E6713
:10284000006672657368004E6F772000454E442025
:10285000535542524F5554494E450A002220706F3D
:1028600073002220706172656E743A2200535542E3
:10287000524F5554494E452043414C4C207461728F
:102880006765743A22004B494C4C45442E20007435
:102890007279696E6720746F2063616C6C20737548
:1028A000622D67636F64652066696C657320776964
:1028B000746820746F6F206D616E79206C65766529
:1028C0006C732E204D4158206C6576656C206973C1
:1028D0003A004572726F723A006F70656E206661E1
:1028E000696C65642C2046696C653A200043616E12
:1028F0006E6F74206F70656E2073756264697220EC
:10290000006563686F3A0000060900FE0701920344
:1029100021207FFF07FF07FF0000000600000107DE
:10292000070602008080808080008003020206018A
:1029300005A0A00507070600005050F850F85050B9
:102940000507070600002078A07028F0200507077B
:10295000060000C0C81020409818050707060000B0
:102960006090A040A89068020303060104C0408064
:1029700003070706010020408080804020030707EE
:10298000060100804020202040800505050600014A
:1029900020A870A8200505050600012020F82020A9
:1029A0000203030602FFC04080050101060003F890
:1029B000020202060200C0C005050506000108105B
:1029C0002040800507070600007088888888887086
:1029D00003070706010040C040404040E0050707EC
:1029E000060000708808708080F805070706000060
:1029F000F81020100808F0050707060000103050F6
:102A000090F81010050707060000F880F008088805
:102A100070050707060000708080F0888870050741
:102A200007060000F80810202020200507070600F0
:102A30000070888870888870050707060000708815
:102A40008878080870020505060200C0C000C0C0F2
:102A50000206060602FFC0C000C040800407070649
:102A6000000010204080402010050303060002F8FB
:102A700000F8040707060100804020102040800570
:102A800007070600007088081020002005070706C9
:102A9000000070880868A8A8700507070600007085
:102AA0008888F8888888050707060000F08888F07D
:102AB0008888F0050707060000708880808088708D
:102AC000050707060000F08888888888F005070752
:102AD000060000F88080F08080F8050707060000F7
:102AE000F88080F0808080050707060000708880ED
:102AF000B8888870050707060000888888F88888E5
:102B0000880107070602008080808080808005079A
:102B10000706000038101010109060050707060027
:102B2000008890A0C0A0908805070706000080805C
:102B300080808080F805070706000088D8A888886C
:102B400088880507070600008888C8A8988888052F
:102B500007070600007088888888887005070706C0
:102B60000000F08888F0808080050707060000706C
:102B7000888888A89068050707060000F08888F014
:102B8000A09088050707060000788080700808F08C
:102B9000050707060000F820202020202005070751
:102BA0000600008888888888887005070706000066
:102BB000888888888850200507070600008888884C
:102BC0008888A8500507070600008888502050888C
:102BD0008805070706000088888850202020050700
:102BE00007060000F80810204080F80307070601D8
:102BF00000E08080808080E00505050600018040BF
:102C0000201008030707060100E02020202020E014
:102C1000050303060004205088050101060000F8A2
:102C20000202020602058040050505060000700844
:102C30007888780507070600008080B0C88888F08B
:102C400005050506000070808088700507070600EE
:102C500000080868988888780505050600007088CF
:102C6000F880700507070600003048E0404040400B
:102C70000506060600FF70888878087005070706B5
:102C800000008080B0C8888888010707060200809D
:102C90000080808080800308080601FF200020203B
:102CA0002020A040040707060000808090A0C0A05C
:102CB00090030707060100C04040404040E0050582
:102CC00005060000D0A8A8A8A8050505060000B0C4
:102CD000C888888805050506000070888888700502
:102CE00006060600FFF08888F080800506060600CC
:102CF000FF788888780808050505060000B0C880B8
:102D0000808005050506000070807008F004070744
:102D10000600004040E04040403005050506000048
:102D200088888898680505050600008888885020EE
:102D30000505050600008888A8A8500505050600B9
:102D40000088502050880506060600FF888888788D
:102D50000870050505060000F8102040F803070775
:102D60000601002040408040402001070706020085
:102D700080808080808080030707060100804040BB
:102D80002040408005020206000268900000000614
:102D9000000000060900FE00000000000109000814
:102DA000FE000005080806000040F0C888889878F2
:102DB00010050808060000C0F88888888888F8058B
:102DC00005050600012030F830200508080600003F
:102DD0002070F820202020E00509090600FF20705F
:102DE000A8A8B8888870200509090600FFE080C0FF
:102DF000B0A8283028280509090600FFF8A8888807
:102E0000888888A8F8050A0A0600FE20505050500D
:102E100088A8A8887003030306000340A0401BE6AF
:102E200008E411241FBECFEFD0E4DEBFCDBF12E017
:102E3000A0E0B1E0E2E9F0EF01E00BBF02C00790D3
:102E40000D92A837B107D9F723E1A8E7B2E001C096
:102E50001D92A338B207E1F717E1C0E1D7E104C042
:102E60002197FE010E94ADF7CF30D107C9F70E942C
:102E7000DDE60C943CF80C94000090916F00292F33
:102E8000227091FF05C090916F009D7F90936F001D
:102E900034E0839FC0011124FC01EC50F64F4081C7
:102EA0005181628173818851964FFC014083518327
:102EB0006283738381E08093E709222329F0809164
:102EC0006F00826080936F000895BC012091E50936
:102ED0003091E6094091E5095091E609241735073C
:102EE00031F481E02617370709F080E008959A0150
:102EF000F1CF4F925F926F927F928F929F92AF929B
:102F0000BF92EF92FF920F931F93CF93DF93CDE980
:102F1000D4E08DEBE82E84E0F82E0DE814E0412C8F
:102F2000512C320143946991799189919991F701DA
:102F300081909190A190B1907F010E9414F0A50121
:102F400094010E9475F00E94DAF5F8016193719383
:102F5000819391938F01461657066806790610F4FF
:102F60002B013C01F4E0CD3ADF07E9F66FEF7FEF8C
:102F7000CB01A30192010E9403F4209389043093B2
:102F80008A0440938B0450938C04DF91CF911F915E
:102F90000F91FF90EF90BF90AF909F908F907F9098
:102FA0006F905F904F900895CF93DF9390916F0053
:102FB000292F227091FF05C090916F009D7F909303
:102FC0006F0094E0899FA0011124FA01EC50F64FA4
:102FD0006081718182819381222329F020916F0089
:102FE000226020936F00EA01C355DB4F0E9416F068
:102FF000288139814A815B810E9475F0DF91CF91F0
:103000000895CF92DF92EF92FF9280919A0A8823DF
:1030100009F457C0C090960AD090970AE090980A99
:10302000F090990A20E030E0A901C701B6010E94A2
:103030000FF0882309F445C020E030E040E05FE372
:10304000C701B6010E9475F09B01AC010E9475F0AA
:103050002BED3FE049E450E40E9475F09B01AC0188
:1030600060E070E080E89FE30E9461F56B017C0105
:10307000C0926D0AD0926E0AE0926F0AF092700AC6
:1030800060912E0170912F01072E000C880B990B77
:103090000E9416F02AE037ED43E25CE30E9475F0EF
:1030A000A70196010E9475F060932A0170932B018D
:1030B00080932C0190932D01FF90EF90DF90CF90A3
:1030C0000895C12CD12C80E8E82E8FE3F82ED0CFC4
:1030D00080916F00982F927081FF05C080916F00E2
:1030E0008D7F80936F0010929C0A10929D0A10921F
:1030F0009E0A10929F0A992329F080916F008260A6
:1031000080936F0008950F931F938091F40E909118
:10311000F50E891B8F7009F449C09091F10E992327
:1031200061F0833040F48FEF890F29F08093F10E26
:1031300090E080E038C01092F10E8091F50E2DE401
:10314000829FC001112482539B4FFC01208120FDEE
:10315000EFCF40919C0A50919D0A60919E0A709118
:103160009F0AE75BFF4F0081118122813381401B61
:10317000510B620B730B40939C0A50939D0A609312
:103180009E0A70939F0A2091F50E2F5F2F70209357
:10319000F20E3091F50E2091F30E321304C02091FF
:1031A000F20E2093F30E1F910F9108950E9468185C
:1031B000BFCFCF93DF938091B00A811105C080917A
:1031C000B10A882309F459C08091490432994FC04B
:1031D0008F7E809349048091490433994AC08F7D42
:1031E0008093490480914904349945C08B7F809332
:1031F0004904C091D809C0FF10C080919E0980FD8C
:103200000CC08091490484FF08C08091C30A80618A
:103210008093C30A80E00E943D17C1FF10C08091D7
:103220009E0981FD0CC08091490485FF08C08091F2
:10323000C30A80628093C30A81E00E943D17C2FFE7
:103240001CC080919E0982FF18C08091B10A88231A
:10325000A1F08091490482FF10C08091C30A84606C
:103260008093C30A82E0DF91CF910C943D17806177
:10327000B0CF8062B5CF8460BACFDF91CF9108958F
:10328000CF92DF92EF92FF92CF93DF93EC01C09049
:103290007D0AD0907E0AE0907F0AF090800AA70114
:1032A0009601688179818A819B810E940FF087FF56
:1032B00004C0C882D982EA82FB82C090810AD09081
:1032C000820AE090830AF090840AA70196016C813B
:1032D0007D818E819F810E940FF087FF04C0CC8288
:1032E000DD82EE82FF82C0903201D0903301E09007
:1032F0003401F0903501A7019601688179818A81B6
:103300009B810E94C7F6181624F4C882D982EA82EB
:10331000FB82C0903601D0903701E0903801F090E8
:103320003901A70196016C817D818E819F810E9468
:10333000C7F6181624F4CC82DD82EE82FF82C0909C
:10334000850AD090860AE090870AF090880AA70143
:103350009601688579858A859B850E940FF087FF95
:1033600004C0C886D986EA86FB86C0903A01D09010
:103370003B01E0903C01F0903D01A701960168857A
:1033800079858A859B850E94C7F6181624F4C8861D
:10339000D986EA86FB86DF91CF91FF90EF90DF9090
:1033A000CF9008955E9A80914F0C8E7F80934F0C42
:1033B0005E9A80914F0C8D7F80934F0C159A80916F
:1033C0004F0C8B7F80934F0C5E9A0895CF93DF93C1
:1033D00080E00E94D417CCECD3E0688379838A83A1
:1033E0009B8381E00E94D4176C837D838E839F83AF
:1033F00082E00E94D417688779878A879B87DF914C
:10340000CF910895CF92DF92EF92FF9260912104C5
:1034100070912204072E000C880B990B0E9416F065
:103420006B017C012DEB37E346E855EB0E94C7F6B4
:1034300087FD0BC02DEB37E346E855E3C701B60126
:103440000E940FF018160CF043C0A701960160E02F
:1034500070E080E89FE30E9461F56093C40370937D
:10346000C5038093C6039093C703609123047091B2
:103470002404072E000C880B990B0E9416F06B0198
:103480007C012DEB37E346E855EB0E94C7F687FD3C
:103490000AC02DEB37E346E855E3C701B6010E94A9
:1034A0000FF01816CCF4A701960160E070E080E8F8
:1034B0009FE30E9461F56093C8037093C9038093F2
:1034C000CA039093CB03FF90EF90DF90CF900895C5
:1034D00060E070E0CB01C1CF60E070E0CB01EBCFEA
:1034E0008091F2029091F302A091F402B091F50262
:1034F0008093610190936201A0936301B093640192
:103500008091F0029091F10290933101809330010B
:1035100008958091610190916201A0916301B09141
:1035200064018093F2029093F302A093F402B093AB
:10353000F50280913001909131019093F1028093D6
:10354000F00284E690E09093310180933001089579
:103550000F931F93CF93DF9394E0899FE001112491
:103560008E01005B134FFE01EE54F54FDE01A650B5
:10357000BC4F2D913D914D915C9160817181828113
:1035800093810E9467F4F80160837183828393833F
:10359000FE01EB54FD4F85919591A591B491FE01EB
:1035A000E358F54F80839183A283B383FE01EF53E9
:1035B000FD4F85919591A591B491CE5CDE4F8883A6
:1035C0009983AA83BB83DF91CF911F910F910895B7
:1035D0009091C20AE92FF0E0E254F54F80839F5F9B
:1035E000943040F49093C20A8091450C8F5F809391
:1035F000450C08951092C20AF7CF2FEB280F2A31FD
:1036000008F042C0E22FF0E080911503909116037C
:10361000A0911703B091180304C0B695A79597958C
:1036200087952A95D2F780FD02C081700895E550F4
:10363000FD4FE081EE2329F180914D0C90914E0CCD
:10364000E80FF92FF11D808190ED980F9A3030F03E
:103650008E3251F4818180538A3098F4F09379024C
:10366000E093780281E008958D3211F08B3249F4B5
:10367000818190ED980F9A3088F38E3211F4828117
:10368000EACFF0E0E0E0EACF80E008950E94FD1A82
:10369000882341F081E02091780230917902232B38
:1036A00009F480E00895089590E080E008958F92F5
:1036B0009F92AF92BF92CF92DF92EF92FF92CF9301
:1036C000DF93EC018090790C90907A0CA0907B0CA9
:1036D000B0907C0C20E030E0A901C501B4010E944B
:1036E0000FF0882309F454C0C880D980EA80FB8099
:1036F000A7019601C501B4010E940FF018160CF045
:103700004CC02091700C3091710C4091720C509112
:10371000730CC701B6010E940FF0882331F1C092EB
:10372000700CD092710CE092720CF092730C20919C
:10373000740C3091750C4091760C5091770C688127
:1037400079818A819B810E9475F09B01AC0160E0C8
:1037500070E080E89FE30E9466F46093000170933C
:103760000101809302019093030160910001709127
:1037700001018091020190910301DF91CF91FF90AF
:10378000EF90DF90CF90BF90AF909F908F90089573
:1037900060E070E080E89FE3F0CF60E070E0CB0194
:1037A000ECCF80E1E0E6FCE0A6E0B4E001900D9211
:1037B0008A95E1F7089580919E0390919F032FEFE2
:1037C0003FEF981751F0E92FF0E0E25EFC4F2081C7
:1037D00030E09F5F9F7790939F03C9010895DF9228
:1037E000EF92FF920F931F93CF93DF93EC01D62EAE
:1037F0001CAD0BAD7C0184E0E80EF11CE98DFA8D67
:10380000C7010995412F480F2D2D602FC7010E9438
:10381000CAB89BAD890F8BAF81E090E0DF91CF916B
:103820001F910F91FF90EF90DF9008954F925F925C
:103830006F927F928F929F92AF92BF92CF92DF92C0
:10384000EF92FF92CF93DF93CDB7DEB76A970FB6B3
:10385000F894DEBF0FBECDBF9A8F898F5B014A01FE
:10386000DC01D7966D917D918D919C91DA970E94A4
:1038700014F06B017C01F50120813181428153817B
:103880000E9475F00E9445F50E94DAF53B015C014B
:10389000D4012D913D914D915C91C701B6010E94DB
:1038A00075F00E9445F50E94DAF56D827E82AF8246
:1038B000B8862D813E814F815885283731054105D5
:1038C000510540F428E730E040E050E02D833E838E
:1038D0004F83588769837A838B839C8389819A81FC
:1038E000AB81BC8188379105A105B10540F428E77B
:1038F00030E040E050E029833A834B835C83E98DDC
:10390000FA8DED5BFF4F80819181A281B381898720
:103910009A87AB87BC87BC01CD010E9416F02B01B2
:103920003C016D817E818F8198850E9414F0698BA6
:103930007A8B8B8B9C8B20E030E0A901C301B20114
:103940000E940FF0882309F43BC1A7019601C7012B
:10395000B6010E9475F04B015C0129893A894B89B7
:103960005C89CA01B9010E9475F09B01AC01C501D7
:10397000B4010E9466F44B015C01A3019201C301F2
:10398000B2010E9467F49B01AC01C501B4010E9421
:1039900061F50E9445F50E94DAF56D877E878F8775
:1039A000988B69857A858B859C8590958095709597
:1039B00061957F4F8F4F9F4F0E9416F04B015C0126
:1039C00069817A818B819C810E9414F069877A8752
:1039D0008B879C8720E030E0A901C501B4010E94DB
:1039E0000FF0882309F4F0C029853A854B855C8562
:1039F000CA01B9010E9475F06D8B7E8B8F8B988FF9
:103A0000A7019601C701B6010E9475F09B01AC01A8
:103A10006D897E898F89988D0E9466F46B017C0187
:103A2000A5019401C501B4010E9467F49B01AC019A
:103A3000C701B6010E9461F50E9409F6A98DBA8DF1
:103A400095968D909D90AD90BC909897750164016E
:103A50002D853E854F855889C21AD30AE40AF50A96
:103A60000E94DAF5C61AD70AE80AF90AF7FE6EC00C
:103A700020E030E0A901C301B2010E940FF08823C9
:103A800009F4A6C0C501B4010E9414F06B017C01C9
:103A9000A3019201C301B2010E9467F49B01AC0132
:103AA000C701B6010E9475F06B017C0129893A8932
:103AB0004B895C89CA01B9010E9475F09B01AC0178
:103AC000C701B6010E9466F46B017C0129853A8525
:103AD0004B855C85CA01B9010E9475F09B01AC0160
:103AE000C701B6010E9467F46B017C0120E030E061
:103AF00040E850E4C301B2010E9475F09B01AC01A3
:103B0000C701B6010E9461F50E9445F56B017C0179
:103B100020E030E0A9010E94C7F618161CF0C12C65
:103B2000D12C7601C701B6010E94DAF56D877E8738
:103B30008F87988B86169706A806B90620F48D867F
:103B40009E86AF86B88AC12CD12C76018D859E8544
:103B5000AF85B889E98DFA8D82A793A7A4A7B5A7E9
:103B6000C80ED91EEA1EFB1EDF01C6A6D7A6E0AA14
:103B7000F1AA2D813E814F81588523AF34AF45AFE7
:103B800056AFDF9629813A814B815C812D933D931D
:103B90004D935C9313976A960FB6F894DEBF0FBEF1
:103BA000CDBFDF91CF91FF90EF90DF90CF90BF908E
:103BB000AF909F908F907F906F905F904F900895FF
:103BC00060E070E0CB01E5CE60E070E0CB0134CF87
:103BD00060E070E0CB0198CF4F925F926F927F923E
:103BE0008F929F92AF92BF92CF92DF92EF92FF920D
:103BF0000F931F93CF93DF93EC01609117047091A3
:103C00001804072E000C880B990B0E9416F09B01DC
:103C1000AC01688179818A819B810E9466F46B0185
:103C20007C016091190470911A04072E000C880B16
:103C3000990B0E9416F09B01AC016C817D818E81F5
:103C40009F810E9466F44B015C01A701960160917F
:103C50000A0170910B0180910C0190910D010E945D
:103C60000FF0882309F459C0C0920A01D0920B01C9
:103C7000E0920C01F0920D012091C4033091C50334
:103C80004091C6035091C703C701B6010E9475F069
:103C90002B013C010E9409F66B017C0120E030E021
:103CA000A9010E940FF087FD79C020E030E040E0DC
:103CB00050E4C701B6010E94C7F618162CF4C12CB7
:103CC000D12CE12CC0E4FC2EA7019601C301B20166
:103CD0000E9466F42B013C0120E030E0A9010E9423
:103CE0000FF087FD5FC04092C0035092C103609205
:103CF000C2037092C303C701B6010E94D3F560935B
:103D0000BF03062E000C770B6F5F7F4F623071058B
:103D100014F062E070E06093BE0310910501D09151
:103D2000BF03A50194016091060170910701809184
:103D30000801909109010E940FF081113CC01D13F0
:103D400093C02091A0033091A1034091A203509110
:103D5000A3036091C0037091C1038091C20390914D
:103D6000C3030E9475F02091A4033091A5034091F4
:103D7000A6035091A7030E9467F4DF91CF911F9192
:103D80000F91FF90EF90DF90CF90BF90AF909F90FA
:103D90008F907F906F905F904F900895C12CD12CA1
:103DA000760192CF1092C0031092C1031092C20309
:103DB0001092C303A0CF8092060190920701A092B7
:103DC0000801B09209012091C8033091C9034091C4
:103DD000CA035091CB03C501B4010E9475F04B0199
:103DE0005C010E9409F66B017C0120E030E0A90132
:103DF0000E940FF087FD01C120E030E040E050E478
:103E0000C701B6010E94C7F618162CF4C12CD12C9C
:103E1000E12CB0E4FB2EA7019601C501B4010E947C
:103E200066F44B015C0120E030E0A9010E940FF034
:103E300087FDE7C08092BA039092BB03A092BC03B7
:103E4000B092BD03C701B6010E94D3F56093B903D8
:103E5000062E000C770B6F5F7F4F6230710514F0F8
:103E600062E070E06093B803C091B9031D1305C010
:103E7000809104018C1709F475C0D0930501C0939B
:103E800004018D2FDD0F990B0C2E000CDD0BAC0106
:103E9000440F551F840F951FFC01EC0FFD1FEE0F03
:103EA000FF1FEE0FFF1FEB5DFB4F20813181428131
:103EB00053812093B4033093B5034093B6035093DA
:103EC000B703E091B8030E2FEE0F110BDC01A00F2A
:103ED000B11FAA0FBB1FAA0FBB1FAB5DBB4F6D91DC
:103EE0007D918D919C910E9466F46093B0037093D4
:103EF000B1038093B2039093B3038091BE03282F44
:103F0000880F330BC901880F991F820F931FC80FA9
:103F1000D91FCC0FDD1FCC0FDD1FCB5DDB4F288100
:103F200039814A815B812093AC033093AD03409388
:103F3000AE035093AF03FC01E00FF11FEE0FFF1F24
:103F4000EE0FFF1FEB5DFB4F6081718182819381DA
:103F50000E9466F46093A8037093A9038093AA0358
:103F60009093AB038090BA039090BB03A090BC03E6
:103F7000B090BD032091B0033091B1034091B203E2
:103F80005091B303C501B4010E9475F02091B403B0
:103F90003091B5034091B6035091B7030E9467F486
:103FA0006B017C01C092A403D092A503E092A6030A
:103FB000F092A7032091A8033091A9034091AA038E
:103FC0005091AB03C501B4010E9475F02091AC0380
:103FD0003091AD034091AE035091AF030E9467F45E
:103FE000A70196010E9466F46093A0037093A10359
:103FF0008093A2039093A303A4CEC12CD12C76016D
:104000000ACF1092BA031092BB031092BC03109215
:10401000BD0318CFCF92DF92EF92FF92CF93DF9341
:104020002091780C222329F1EC0108960E94571B5D
:104030006B017C0120E030E0A9010E940FF020E03C
:1040400030E0A901882359F0CE010E94EC1D9B01AC
:10405000AC01C701B6010E9475F09B01AC016885F7
:1040600079858A859B850E9466F4688779878A8727
:104070009B87DF91CF91FF90EF90DF90CF900895D5
:104080008F929F92AF92BF92CF92DF92EF92FF9268
:104090000F93CF93DF931F92CDB7DEB76C017B01F7
:1040A000490180911B045B01A40EB51E8823A1F079
:1040B000F60180819181480F591F518340830F90F1
:1040C000DF91CF910F91FF90EF90DF90CF90BF9055
:1040D000AF909F908F900895F601808191810E940A
:1040E000DDF3898390911C04992311F0002311F0D2
:1040F000F7018083BE016F5F7F4FC4010E9449B406
:10410000F60180819181019691838083FFEFEF1A00
:10411000FF0AEA14FB0401F7D2CF2F923F924F928D
:104120005F926F927F928F929F92AF92BF92CF9247
:10413000DF92EF92FF920F931F93CF93DF9300D004
:1041400000D000D0CDB7DEB79A8389830E9410B625
:10415000A981BA811696CD90DD90ED90FC901997CB
:10416000C114D104E104F10409F07FC21C962C9122
:104170001C97222309F44DC01A96EC911A972150EE
:104180001C962C931C9721E02E0F1A962C931A97AD
:104190001D963C911D97231302C01A961C92F0E0C5
:1041A0003196EE0FFF1FEE0FFF1F29813A81E20FBC
:1041B000F31FC284D384E484F584D9011296CD928E
:1041C000DD92ED92FC9215976C0D7D1D811D911D68
:1041D000F901668377838087918784819581892B14
:1041E000C1F0FFB7FD83F894A981BA8112962D9092
:1041F0003C9013972101712C612C14960D911C9108
:1042000080914D018B31F1F08F3F09F497C0AD8162
:10421000AFBF26960FB6F894DEBF0FBECDBFDF91BD
:10422000CF911F910F91FF90EF90DF90CF90BF90B3
:10423000AF909F908F907F906F905F904F903F9046
:104240002F900895E7E5F2E2B491BE83B7FDDFCF8A
:1042500061E08BE10E94D2B43E81332321F08E8154
:10426000823009F072C14801B12CA12C60E072E1EA
:104270008AE790E0A50198010E9425F429833A83FA
:104280004B835C8369017A0191E0C91AD108E10886
:10429000F108AFEFCA16D104E104F10409F00CF4FF
:1042A0002BC160E472E48FE090E0A50198010E94C8
:1042B00025F469017A01B1E0CB1AD108E108F108CF
:1042C000EE81E23009F0CCC082E0FFEFCF16D104DE
:1042D000E104F10409F00CF425C260E970ED83E01B
:1042E00090E0A50198010E9425F469017A0181E01E
:1042F000C81AD108E108F10883E09FEFC916D1047C
:10430000E104F10409F00CF40DC268E478EE81E0F8
:1043100090E0A50198010E9425F469017A01A1E0CD
:10432000CA1AD108E108F108BFEFCB16D104E104A5
:10433000F10411F00CF0B8C084E0F4C18BE180937B
:104340004D01E7E5F2E224912E832F3F09F45FCF80
:10435000213041F170F0223009F442C0233009F4D9
:1043600061C0FE81F7FD53CF61E08BE10E94D2B4C2
:1043700076CF14BC15BC84B5826084BD85B58160E0
:1043800085BDEBEDF6E2E491F0E0EE0FFF1FE455A2
:10439000F94D85919491EBEFF6E2E491E0937C0284
:1043A0001E8256CF10928000109281008091810071
:1043B000886080938100809181008160809381007A
:1043C000EBEDF6E2E491F0E0EE0FFF1FE455F94D5E
:1043D00085919491EBEFF6E2E491E0937B0238CF84
:1043E0001092B0001092B1008091B0008260809372
:1043F000B0008091B10081608093B100EBEDF6E2F6
:10440000E491F0E0EE0FFF1FE455F94D8591949192
:104410009093A20A8093A10AEBEFF6E2E491E09375
:10442000A30A16CF109290001092910080919100F3
:1044300088608093910080919100816080939100C9
:10444000EBEDF6E2E491F0E0EE0FFF1FE455F94DDD
:1044500085919491EBEFF6E2E491E0937A02F8CE45
:10446000AFEFCA16D104E104F10409F00CF46BC0FB
:1044700068E478EE81E090E0A50198010E9425F4BF
:1044800069017A01B1E0CB1AD108E108F108EE81A7
:10449000EE2309F413C12FEFC216D104E104F10495
:1044A00011F00CF014C148CF64E274EF80E090E0AA
:1044B000A50194010E9425F469017A01F1E0CF1A67
:1044C000D108E108F10885E02FEFC216D104E1041C
:1044D000F10409F008F426C162E17AE780E090E097
:1044E000A50194010E9425F469017A01E1E0CE1A48
:1044F000D108E108F108FDC081E0AE81A11112C12F
:1045000095B5987F892B85BD2FEF3FEFA9014528F1
:104510004628472809F051C08E81813009F483C0B4
:104520000CF07BC0811173CEC7BC20938502309301
:104530008602409387025093880280916E008260C9
:1045400080936E0064CE82E0D8CFB12CA12C60E0C5
:1045500072E18AE790E0A50198010E9425F46901C3
:104560007A01B1E0CB1AD108E108F10891E0C11459
:10457000D104E1E0EE06F10484F068E478EE81E035
:1045800090E0A50198010E9425F469017A01F1E00B
:10459000CF1AD108E108F10893E02E812130D1F43F
:1045A00080918100887F892B809381002FEF3FEFDE
:1045B000A901452846284728B1F19801220F331F49
:1045C000D1010E9457F428EE33E040E050E00E9411
:1045D00003F4A2CF3E81333009F096CF8091910051
:1045E000887F892B809391002FEF3FEFA901452809
:1045F0004628472811F7D0929900C092980020933E
:104600007D0230937E0240937F025093800280911E
:104610007100826080937100FACD9E819230A9F082
:10462000933049F3F4CDD0928900C0928800209352
:1046300081023093820240938302509384028091DE
:104640006F00826080936F00E2CDC092B300209330
:10465000A40A3093A50A4093A60A5093A70A809112
:104660007000826080937000D2CD6C197D098E0934
:104670009F0997FDCECD1498E981FA8116821782A1
:1046800010861186C6CD84E03FEFC316D104E10445
:10469000F10409F008F434CFC980DA80EB80FC80A3
:1046A0009AE0F594E794D794C7949A95D1F721E0CE
:1046B000C21AD108E108F10885E022CF83E0FFEFBC
:1046C000CF16D104E104F10409F00CF419CF62E132
:1046D0007AE780E090E0A50194010E9425F4690149
:1046E0007A0181E0C81AD108E108F1089E81992376
:1046F00051F286E09FEFC916D104E104F10491F074
:1047000088F0C980DA80EB80FC808AE0F594E79439
:10471000D794C7948A95D1F781E0C81AD108E108E7
:10472000F10887E09091B100987F892B8093B100C8
:10473000EBCE8091780290917902009731F04AE0B7
:1047400050E070E060E00C9422ED60E070E0CB019E
:1047500008950E94992397FD0CC00E9499236F3FF2
:1047600071058105910509F034F40E949923862F83
:10477000089580E008958FEF0895809178029091D8
:104780007902892B41F00E94A92391E0811101C097
:1047900090E0892F089591E0FCCF8091780290916C
:1047A0007902009731F04AE050E070E060E00C944C
:1047B00050EE60E070E0CB0108950F931F93CF930C
:1047C00080917802909179020097E9F0FC018F01C5
:1047D000C1912C2F2F7D81F0C53411F0C536B9F76A
:1047E000F801108270E060E00E94C4EBF801C08321
:1047F000CF911F910F91089570E060E0CF911F91CC
:104800000F910C94C4EB60E070E0CB01F1CF86E433
:104810000E94FD1A8093950A882351F00E94DD239F
:1048200060933F0170934001809341019093420156
:1048300083E50E94FD1A882351F00E94DD236093D6
:104840004701709348018093490190934A0182E4A3
:104850000E94FD1A882351F00E94DD2360934301DA
:104860007093440180934501909346010895CF923F
:10487000DF92EF92FF920F931F93CF93DF933EEE61
:10488000C32E31E0D32E46E0E42E44E0F42E00E6C1
:104890001CE0D0E0C0E0F60181916F010E94FD1A9A
:1048A000882309F458C00E94DD23FE01EA50FD4F21
:1048B0002081211104C02091FA022223E1F1F801A4
:1048C00020813181428153810E9467F4F701608326
:1048D0007183828393832196F4E0EF0EF11C0C5FC9
:1048E0001F4FC430D105B9F686E40E94461B8823C9
:1048F000C9F00E94DD2320E030E0A9010E94C7F644
:10490000181684F40E94DD2320E030E040E752E4F2
:104910000E9461F56093610170936201809363016D
:1049200090936401DF91CF911F910F91FF90EF90D1
:10493000DF90CF900895C33049F2FE01EE0FFF1FC4
:10494000EE0FFF1FE05BF34F2081318142815381E5
:104950000E9466F4BBCFF80180819181A281B3816E
:10496000F70180839183A283B383B5CF11980000B0
:10497000000087FD52C0419800000000119A00001D
:10498000000011980000000086FD53C0419800000F
:104990000000119A0000000011980000000085FD41
:1049A00046C0419800000000119A000000001198D4
:1049B0000000000084FD39C0419800000000119AF9
:1049C0000000000011980000000083FD2CC04198F9
:1049D00000000000119A0000000011980000000083
:1049E00082FD1FC0419800000000119A00000000E5
:1049F00011980000000081FD12C0419800000000E5
:104A0000119A000000001198000000004198000079
:104A10000000119A000000000895419AADCF419A1C
:104A2000EDCF419AE0CF419AD3CF419AC6CF419A78
:104A3000B9CF419AACCF8F929F92AF92BF92CF9253
:104A4000DF92EF92FF920F931F93CF93DF93B0E427
:104A5000A0E06A2F70E0AB014B0F511D55954795B3
:104A60004A1711F0B41319C0EDEEFAE16591749193
:104A7000072E000C880B990B0E9416F0DF91CF9146
:104A80001F910F91FF90EF90DF90CF90BF90AF906C
:104A90009F908F900895B42FDECF9A012150310955
:104AA000220F331F220F331FF901E151F64EE5901B
:104AB000F490F901ED50F64EC591D4918E159F05F5
:104AC00054F3A42FC817D9070CF4C3CFF901EF5042
:104AD000F64E05911491F901EB50F64EC590D49025
:104AE000BC016E197F09072E000C880B990B0E94E0
:104AF00016F04B015C01B601601B710B072E000C18
:104B0000880B990B0E9416F09B01AC01C501B40102
:104B10000E9475F04B015C01BE016E197F09072EE2
:104B2000000C880B990B0E9416F09B01AC01C5018B
:104B3000B4010E9461F56B017C01B801110F880B73
:104B4000990B0E9416F09B01AC01C701B6010E94AF
:104B500067F494CF0F930FB70F9300916E000B7F04
:104B600000936E0078940F930BB70F930CB70F92CE
:104B70001F922F933F934F935F936F937F938F93E6
:104B80009F93AF93BF93EF93FF9311240E945A42D8
:104B9000FF91EF91BF91AF919F918F917F916F9115
:104BA0005F914F913F912F911F900F900CBF0F91EC
:104BB0000BBF0F910460F89400936E000F910FBF2C
:104BC0000F911895CF92DF92EF92FF92C090680AF2
:104BD000D090690AE0906A0AF0906B0A6091460CE6
:104BE0007091470C66507109072E000C880B990BC9
:104BF0000E9416F0A70196010E94C7F618160CF540
:104C000020E030E040E050E4C701B6010E9467F4C4
:104C10000E94DAF57093450A6093440A0E9410B628
:104C2000605A75418F4F9F4F6093400A7093410ABD
:104C30008093420A9093430AFF90EF90DF90CF90C9
:104C400008951092400A1092410A1092420A10925E
:104C5000430AF2CF8F929F92AF92BF92CF92DF9290
:104C6000EF92FF920F931F93CF93DF93B0E4A0E0F6
:104C70006A2F70E0AB014B0F511D55954795A41756
:104C800011F0B41319C0EDEEFAE165917491072E9D
:104C9000000C880B990B0E9416F0DF91CF911F91A9
:104CA0000F91FF90EF90DF90CF90BF90AF909F90CB
:104CB0008F900895B42FDECF9A0121503109220F31
:104CC000331F220F331FF901E151F64EE590F490A6
:104CD000F901ED50F64EC591D4918E159F0554F310
:104CE000A42FC817D9070CF4C3CFF901EF50F64E23
:104CF00005911491F901EB50F64EC590D490BC018A
:104D00006E197F09072E000C880B990B0E9416F074
:104D10004B015C01B601601B710B072E000C880B68
:104D2000990B0E9416F09B01AC01C501B4010E94D1
:104D300075F04B015C01BE016E197F09072E000C56
:104D4000880B990B0E9416F09B01AC01C501B401C0
:104D50000E9461F56B017C01B801110F880B990B62
:104D60000E9416F09B01AC01C701B6010E9467F4D6
:104D700094CF8091500A9091510A0E941B25609314
:104D8000AF0E7093B00E8093B10E9093B20E8091DF
:104D90004E0A90914F0A0E942A266093680A7093E7
:104DA000690A80936A0A90936B0AA8951092520A36
:104DB00008950F931F9380916C0A813019F50E941A
:104DC00010B60091080A1091090A20910A0A309140
:104DD0000B0A601B710B820B930B28EE33E040E053
:104DE00050E00E9403F46091040A7091050A8091DA
:104DF000060A9091070A620F731F841F951F1F9167
:104E00000F91089560910C0A70910D0A80910E0A1D
:104E100090910F0AD6CF10926C0A1092080A109245
:104E2000090A10920A0A10920B0A10920C0A1092A8
:104E30000D0A10920E0A10920F0A1092040A109294
:104E4000050A1092060A1092070A089580916C0ACA
:104E50008130F1F08230C9F40E94D9266093040AAF
:104E60007093050A8093060A9093070A81E0809365
:104E70006C0A0E9410B66093080A7093090A809326
:104E80000A0A90930B0A81E008950E940B27EECF47
:104E900080E0089580916C0A813079F482E08093FB
:104EA0006C0A0E9410B660930C0A70930D0A8093EE
:104EB0000E0A90930F0A81E0089580E00895809192
:104EC0006C0A8150823070F410926C0A0E9410B605
:104ED00060930C0A70930D0A80930E0A90930F0A48
:104EE00081E0089580E008951092950A90E080E0B6
:104EF0000E9413BA1092470C1092460C0E94E225B1
:104F00000E945F2790E080E00E9413BA1092650A29
:104F10005D981092470C1092460C1092660A5C98AD
:104F200008950F930FB70F9300916E000F930B7FAF
:104F300000936E0000916F000D7F00936F000F9340
:104F40000BB70F930CB70F921F922F933F934F9372
:104F50005F936F937F938F939F93AF93BF93EF93E1
:104F6000FF9311240E940128FF91EF91BF91AF910F
:104F70009F918F917F916F915F914F913F912F9171
:104F80001F900F900CBF0F910BBF0F910260F89410
:104F900000936F000F9100936E000F910FBF0F9160
:104FA000189580919E0980FF20C0459A8FEF8093CD
:104FB000150180919E0981FF1BC0479A8FEF809356
:104FC000160180919E0982FF16C02A9A8FEF809366
:104FD000170180919E0983FF11C0289A8FEF80935B
:104FE00018010000000000000895459881E0DFCF1F
:104FF000479881E0E4CF2A9881E0E9CF289881E0C2
:10500000EECF2F923F924F925F926F927F928F924C
:105010009F92BF92CF92DF92EF92FF920F931F93D6
:10502000CF93DF93F8948FEF9FEF90938900809355
:1050300088007AE0B72E312C212CE5E88E2EE9E1AC
:105040009E2E78948091E1099091E209A091E30964
:10505000B091E409892B8A2B8B2B09F0CCC180916C
:10506000E7098823D1F08091E5099091E609109233
:10507000E709892B91F01092D8091092E609109255
:10508000E5099091F40E8091F50E981731F080911A
:10509000F50E8F5F8F708093F50E8091E5099091EA
:1050A000E609892B09F4A7C14091DD095091DE0979
:1050B0006091DF097091E0098091D9099091DA0936
:1050C000A091DB09B091DC09C090CB09D12CF12C67
:1050D000E12C841B950BA60BB70BC816D906EA0664
:1050E000FB0610F4D701C601382F840F951FA61FA9
:1050F000B71F8093DD099093DE09A093DF09B09379
:10510000E00980918400909185004E964091B3090A
:105110005091B4096091B5097091B609C090A30986
:10512000D090A409E090A509F090A6094C0D5D1D52
:105130006E1D7F1D4093B3095093B4096093B50968
:105140007093B60977FD1CC05F9AC090F409D090A7
:10515000F509E090F609F090F70920911501422F2A
:10516000220F550B660B770B4C0D5D1D6E1D7F1DC1
:105170004093F4095093F5096093F6097093F70989
:105180004091B7095091B8096091B9097091BA0975
:10519000C090A709D090A809E090A909F090AA09A9
:1051A0004C0D5D1D6E1D7F1D4093B7095093B809CE
:1051B0006093B9097093BA0977FD1CC0469AC090F4
:1051C000F809D090F909E090FA09F090FB092091D4
:1051D0001601422F220F550B660B770B4C0D5D1DF0
:1051E0006E1D7F1D4093F8095093F9096093FA09E9
:1051F0007093FB094091BB095091BC096091BD09B6
:105200007091BE09C090AB09D090AC09E090AD0997
:10521000F090AE094C0D5D1D6E1D7F1D4093BB09C6
:105220005093BC096093BD097093BE0977FD1CC003
:105230002B9AC090FC09D090FD09E090FE09F090F7
:10524000FF0920911701422F220F550B660B770B98
:105250004C0D5D1D6E1D7F1D4093FC095093FD0993
:105260006093FE097093FF094091BF095091C009F6
:105270006091C1097091C209C090AF09D090B00986
:10528000E090B109F090B2094C0D5D1D6E1D7F1DBF
:105290004093BF095093C0096093C1097093C2093C
:1052A00077FD1CC0299AC090000AD090010AE090B6
:1052B000020AF090030A20911801422F220F550B89
:1052C000660B770B4C0D5D1D6E1D7F1D4093000A14
:1052D0005093010A6093020A7093030A409184007C
:1052E0005091850048175907C8F34091B309509170
:1052F000B4096091B5097091B60977FD15C0C090E9
:105300009F09D090A009E090A109F090A2094C1942
:105310005D096E097F094093B3095093B409609306
:10532000B5097093B6095F984091B7095091B809D3
:105330006091B9097091BA0977FD15C0C0909F09B5
:10534000D090A009E090A109F090A2094C195D0944
:105350006E097F094093B7095093B8096093B90962
:105360007093BA0946984091BB095091BC0960916D
:10537000BD097091BE0977FD15C0C0909F09D090FE
:10538000A009E090A109F090A2094C195D096E09ED
:105390007F094093BB095093BC096093BD0970938A
:1053A000BE092B984091BF095091C0096091C10975
:1053B0007091C20977FD15C0C0909F09D090A009D7
:1053C000E090A109F090A2094C195D096E097F09CE
:1053D0004093BF095093C0096093C1097093C209FB
:1053E0002998315041F04091840050918500481730
:1053F0005907C8F38ACE8091E1099091E209A09102
:10540000E309B091E409892B8A2B8B2B09F025C481
:10541000E091E509F091E609309709F486C480919E
:10542000DD099091DE09A091DF09B091E00940917A
:10543000D9095091DA096091DB097091DC09841770
:105440009507A607B70708F46EC01092D809109206
:10545000E6091092E5099091F40E8091F50E9817E7
:1054600009F463C48091F50E8F5F8F708093F50E01
:1054700060EDC62E67E0D62EE12CF12C8091E50977
:105480009091E609892B09F0E0C30E94831890935C
:10549000E6098093E509892B09F4D7C3C091E50992
:1054A000D091E609888183FF92C28D899E89AF8958
:1054B000B88D8093F4099093F509A093F609B09301
:1054C000F709898D9A8DAB8DBC8D8093F8099093E7
:1054D000F909A093FA09B093FB098D8D9E8DAF8DCC
:1054E000B8A18093FC099093FD09A093FE09B093A5
:1054F000FF0989A19AA1ABA1BCA18093000A909356
:10550000010AA093020AB093030A9091F40E8091CD
:10551000F50E981709F4B9CF8091F50E8F5F8F7053
:105520008093F50EB2CF4091D4095091D509609186
:10553000D6097091D709481759076A077B0708F4FD
:10554000D9C08091D0099091D109A091D209B09190
:10555000D30942A953A964A975A9CC27859FD12D48
:10556000969F9001A69F300DA59F200D311D869F0F
:10557000D00D211D3C1F959FD00D211D3C1FA49FC8
:10558000D00D211D3C1F949FD10D2C1F3C1FD69583
:105590002C1F3C1F789F200D311D799F300D112449
:1055A00043AD54AD65AD76AD420F531F611D711D06
:1055B0004093CC095093CD096093CE097093CF09E5
:1055C000C7A8D0ACE1ACF2ACC416D506E606F70627
:1055D00040F4C092CC09D092CD09E092CE09F0926D
:1055E000CF094090CC095090CD096090CE097090C1
:1055F000CF0929E639E141E0F901C590D590E59060
:10560000F490C414D504E604F70450F47694679437
:1056100057944794440F2C5F3F4F8216930661F7CF
:105620004093CB0920E2421651046104710428F42E
:1056300020E2422E512C612C712C40E2441A510878
:1056400061087108411478E057066104710408F498
:105650002EC0F4E05F9E9001112427593A4EF901C3
:10566000329645915491F42DEE27F59FB001F49FA9
:10567000610D7E1F06946E1F7E1F1124AB0170E02A
:1056800060E0F901C590D490F12CE12CC41AD50A40
:10569000E60AF70A8C0D9D1DAE1DBF1D8093D00933
:1056A0009093D109A093D209B093D309E7CEB30167
:1056B000A20176956795579547959A012C7F2759B2
:1056C0003E4EF901C590D490F9013296459154911E
:1056D000242D2770422E449E9001459E300D1124AA
:1056E00003E0369527950A95E1F7C21AD30AF12C03
:1056F000E12CD0CF4091C7095091C8096091C909E8
:105700007091CA09481759076A077B0708F0CFC08C
:105710008091C3099091C409A091C509B091C609AF
:1057200042A953A964A975A92227859F312D969F67
:105730006001A69FD00CA59FC00CD11C869F300D88
:10574000C11CD21E959F300DC11CD21EA49F300DCE
:10575000C11CD21E949F310DC21ED21E3695C21E90
:10576000D21E789FC00CD11C799FD00C1124F12C33
:10577000E12C4091CC095091CD096091CE097091F6
:10578000CF09FF964080518062807380C416D50691
:10579000E606F70658F44C195D096E097F094416B0
:1057A00055066606770610F42A013B0129E639E121
:1057B00041E0F901C590D590E590F490C414D5046A
:1057C000E604F70450F47694679457944794440F92
:1057D0002C5F3F4F8216930661F74093CB0940E25E
:1057E000441651046104710428F4C0E24C2E512C7B
:1057F000612C712C70E2471A51086108710841143C
:10580000F8E05F066104710408F42EC044E0549E81
:105810009001112427593A4EF9013296459154913D
:10582000F42DEE27F59FB001F49F610D7E1F0694C5
:105830006E1F7E1F1124AB0170E060E0F901C5907E
:10584000D490F12CE12CC41AD50AE60AF70A8C0D83
:105850009D1DAE1DBF1D8093C3099093C409A093E5
:10586000C509B093C6090ACEB301A2017695679522
:10587000579547959A012C7F27593E4EF901C590BF
:10588000D490F901329645915491242D2770422EDF
:10589000449E9001459E300D1124F3E036952795E6
:1058A000FA95E1F7C21AD30AF12CE12CD0CF8091FE
:1058B0001A0190911B01A0911C01B0911D01B7FF2D
:1058C0005BC0C7A8D0ACE1ACF2AC89E699E121E0BD
:1058D000FC0145915591659174914C155D056E05DE
:1058E0007F0548F4F694E794D794C794220F049662
:1058F0008816990669F72093CB0940E2C416D104B3
:10590000E104F10428F460E2C62ED12CE12CF12C44
:1059100070E2C71AD108E108F108C11488E0D8067E
:10592000E104F10408F431C0A4E0DA9EC0011124BE
:1059300087599A4EFC01329625913491BC2D6627E9
:10594000B39FA001B29F410D561F0694461F561FDC
:10595000112470E060E0FC0185919491B0E0A0E03A
:10596000841B950BA60BB70B80931A0190931B0118
:10597000A0931C01B0931D01C0901A01D0901B018F
:10598000E0901C01F0901D0179CDD701C601B695BC
:10599000A795979587958C7F87599E4EFC012591F9
:1059A0003491FC01329645915491FC2DF770F49F8F
:1059B000C001F59F900D112453E0969587955A9557
:1059C000E1F7281B390BC901B0E0A0E0CDCF4D882D
:1059D0005E886F88788C81E0411451046104710401
:1059E00009F480E0C98CDA8CEB8CFC8CC114D104F6
:1059F000E104F10409F082604D8D5E8D6F8D78A118
:105A0000411551056105710509F084608093D8093D
:105A10001092C3091092C4091092C5091092C609C8
:105A20001092D0091092D1091092D2091092D30984
:105A30008DA19EA1AFA1B8A58093D9099093DA0951
:105A4000A093DB09B093DC09002711279801081BFC
:105A5000190B2A0B3B0B0093BF091093C00920932D
:105A6000C1093093C2090093BB091093BC0920936C
:105A7000BD093093BE090093B7091093B80920936C
:105A8000B9093093BA090093B3091093B40920936C
:105A9000B5093093B609440C551C661C771C40921E
:105AA000A3095092A4096092A5097092A609CC0C92
:105AB000DD1CEE1CFF1CC092A709D092A809E09241
:105AC000A909F092AA09440F551F661F771F40933A
:105AD000AB095093AC096093AD097093AE0949A12D
